{
  "_format": "hh-sol-artifact-1",
  "contractName": "WavePortal",
  "sourceName": "contracts/WavePortal.sol",
  "abi": [
    {
      "inputs": [],
      "stateMutability": "nonpayable",
      "type": "constructor"
    },
    {
      "inputs": [],
      "name": "getTotalWaves",
      "outputs": [
        {
          "internalType": "uint256",
          "name": "",
          "type": "uint256"
        }
      ],
      "stateMutability": "view",
      "type": "function"
    },
    {
      "inputs": [],
      "name": "getWavers",
      "outputs": [
        {
          "internalType": "address[]",
          "name": "",
          "type": "address[]"
        }
      ],
      "stateMutability": "view",
      "type": "function"
    },
    {
      "inputs": [],
      "name": "wave",
      "outputs": [],
      "stateMutability": "nonpayable",
      "type": "function"
    }
  ],
  "bytecode": "0x608060405234801561001057600080fd5b5061003c6040518060600160405280602281526020016109496022913961004160201b61025e1760201c565b6101c4565b6100dd816040516024016100559190610142565b6040516020818303038152906040527f41304fac000000000000000000000000000000000000000000000000000000007bffffffffffffffffffffffffffffffffffffffffffffffffffffffff19166020820180517bffffffffffffffffffffffffffffffffffffffffffffffffffffffff83818316178352505050506100e060201b60201c565b50565b60008151905060006a636f6e736f6c652e6c6f679050602083016000808483855afa5050505050565b600061011482610164565b61011e818561016f565b935061012e818560208601610180565b610137816101b3565b840191505092915050565b6000602082019050818103600083015261015c8184610109565b905092915050565b600081519050919050565b600082825260208201905092915050565b60005b8381101561019e578082015181840152602081019050610183565b838111156101ad576000848401525b50505050565b6000601f19601f8301169050919050565b610776806101d36000396000f3fe608060405234801561001057600080fd5b50600436106100415760003560e01c8063635f29f8146100465780636fe15b44146100645780639a2cdc081461006e575b600080fd5b61004e61008c565b60405161005b9190610534565b60405180910390f35b61006c610158565b005b610076610213565b60405161008391906105d8565b60405180910390f35b60606100cc6040518060400160405280601481526020017f486572652061726520746865207761766572732100000000000000000000000081525061025e565b600180548060200260200160405190810160405280929190818152602001828054801561014e57602002820191906000526020600020905b8160009054906101000a900473ffffffffffffffffffffffffffffffffffffffff1673ffffffffffffffffffffffffffffffffffffffff1681526020019060010190808311610104575b5050505050905090565b60008081548092919061016a906106b7565b91905055506001339080600181540180825580915050600190039060005260206000200160009091909190916101000a81548173ffffffffffffffffffffffffffffffffffffffff021916908373ffffffffffffffffffffffffffffffffffffffff1602179055506102116040518060400160405280600d81526020017f2573206861732077617665642100000000000000000000000000000000000000815250336102f7565b565b60006102566040518060400160405280601781526020017f5765206861766520256420746f74616c20776176657321000000000000000000815250600054610393565b600054905090565b6102f4816040516024016102729190610556565b6040516020818303038152906040527f41304fac000000000000000000000000000000000000000000000000000000007bffffffffffffffffffffffffffffffffffffffffffffffffffffffff19166020820180517bffffffffffffffffffffffffffffffffffffffffffffffffffffffff838183161783525050505061042f565b50565b61038f828260405160240161030d929190610578565b6040516020818303038152906040527f319af333000000000000000000000000000000000000000000000000000000007bffffffffffffffffffffffffffffffffffffffffffffffffffffffff19166020820180517bffffffffffffffffffffffffffffffffffffffffffffffffffffffff838183161783525050505061042f565b5050565b61042b82826040516024016103a99291906105a8565b6040516020818303038152906040527f9710a9d0000000000000000000000000000000000000000000000000000000007bffffffffffffffffffffffffffffffffffffffffffffffffffffffff19166020820180517bffffffffffffffffffffffffffffffffffffffffffffffffffffffff838183161783525050505061042f565b5050565b60008151905060006a636f6e736f6c652e6c6f679050602083016000808483855afa5050505050565b60006104648383610470565b60208301905092915050565b61047981610648565b82525050565b61048881610648565b82525050565b600061049982610603565b6104a38185610626565b93506104ae836105f3565b8060005b838110156104df5781516104c68882610458565b97506104d183610619565b9250506001810190506104b2565b5085935050505092915050565b60006104f78261060e565b6105018185610637565b9350610511818560208601610684565b61051a8161072f565b840191505092915050565b61052e8161067a565b82525050565b6000602082019050818103600083015261054e818461048e565b905092915050565b6000602082019050818103600083015261057081846104ec565b905092915050565b6000604082019050818103600083015261059281856104ec565b90506105a1602083018461047f565b9392505050565b600060408201905081810360008301526105c281856104ec565b90506105d16020830184610525565b9392505050565b60006020820190506105ed6000830184610525565b92915050565b6000819050602082019050919050565b600081519050919050565b600081519050919050565b6000602082019050919050565b600082825260208201905092915050565b600082825260208201905092915050565b60006106538261065a565b9050919050565b600073ffffffffffffffffffffffffffffffffffffffff82169050919050565b6000819050919050565b60005b838110156106a2578082015181840152602081019050610687565b838111156106b1576000848401525b50505050565b60006106c28261067a565b91507fffffffffffffffffffffffffffffffffffffffffffffffffffffffffffffffff8214156106f5576106f4610700565b5b600182019050919050565b7f4e487b7100000000000000000000000000000000000000000000000000000000600052601160045260246000fd5b6000601f19601f830116905091905056fea26469706673582212205c91934a793ed4f918b4b6bf167ca0409ba179cb03dce2d6cf3023fa35bf281364736f6c634300080400334865726520776520676f2c2041646f6c20536d61727420436f6e7472616374212121",
  "linkReferences": {},
  "deployedLinkReferences": {}
}