{
  "_format": "hh-sol-artifact-1",
  "contractName": "WavePortal",
  "sourceName": "contracts/WavePortal.sol",
  "abi": [
    {
      "inputs": [],
      "stateMutability": "payable",
      "type": "constructor"
    },
    {
      "anonymous": false,
      "inputs": [
        {
          "indexed": true,
          "internalType": "address",
          "name": "from",
          "type": "address"
        },
        {
          "indexed": false,
          "internalType": "uint256",
          "name": "timestamp",
          "type": "uint256"
        },
        {
          "indexed": false,
          "internalType": "string",
          "name": "message",
          "type": "string"
        }
      ],
      "name": "NewWave",
      "type": "event"
    },
    {
      "inputs": [],
      "name": "getAllWaves",
      "outputs": [
        {
          "components": [
            {
              "internalType": "address",
              "name": "waver",
              "type": "address"
            },
            {
              "internalType": "uint256",
              "name": "timestamp",
              "type": "uint256"
            },
            {
              "internalType": "string",
              "name": "message",
              "type": "string"
            }
          ],
          "internalType": "struct WavePortal.Wave[]",
          "name": "",
          "type": "tuple[]"
        }
      ],
      "stateMutability": "view",
      "type": "function"
    },
    {
      "inputs": [],
      "name": "getTotalWaves",
      "outputs": [
        {
          "internalType": "uint256",
          "name": "",
          "type": "uint256"
        }
      ],
      "stateMutability": "view",
      "type": "function"
    },
    {
      "inputs": [
        {
          "internalType": "string",
          "name": "_message",
          "type": "string"
        }
      ],
      "name": "wave",
      "outputs": [],
      "stateMutability": "nonpayable",
      "type": "function"
    }
  ],
  "bytecode": "0x60806040526200003360405180606001604052806022815260200162001080602291396200003960201b620004e91760201c565b620001cd565b620000d98160405160240162000050919062000146565b6040516020818303038152906040527f41304fac000000000000000000000000000000000000000000000000000000007bffffffffffffffffffffffffffffffffffffffffffffffffffffffff19166020820180517bffffffffffffffffffffffffffffffffffffffffffffffffffffffff8381831617835250505050620000dc60201b60201c565b50565b60008151905060006a636f6e736f6c652e6c6f679050602083016000808483855afa5050505050565b600062000112826200016a565b6200011e818562000175565b93506200013081856020860162000186565b6200013b81620001bc565b840191505092915050565b6000602082019050818103600083015262000162818462000105565b905092915050565b600081519050919050565b600082825260208201905092915050565b60005b83811015620001a657808201518184015260208101905062000189565b83811115620001b6576000848401525b50505050565b6000601f19601f8301169050919050565b610ea380620001dd6000396000f3fe608060405234801561001057600080fd5b50600436106100415760003560e01c8063449d46c0146100465780639a2cdc0814610062578063bd43a90814610080575b600080fd5b610060600480360381019061005b91906107ee565b61009e565b005b61006a61030f565b6040516100779190610b18565b60405180910390f35b61008861035a565b6040516100959190610a34565b60405180910390f35b6000808154809291906100b090610d0b565b91905055506100f46040518060400160405280600d81526020017f257320686173207761766564210000000000000000000000000000000000000081525033610582565b600160405180606001604052803373ffffffffffffffffffffffffffffffffffffffff16815260200142815260200183815250908060018154018082558091505060019003906000526020600020906003020160009091909190915060008201518160000160006101000a81548173ffffffffffffffffffffffffffffffffffffffff021916908373ffffffffffffffffffffffffffffffffffffffff1602179055506020820151816001015560408201518160020190805190602001906101bd9291906106e3565b5050503373ffffffffffffffffffffffffffffffffffffffff167f5f7e16dc676677766a70e9c5628aa6c54ddb8b6e5188e2ae1e1f17f1ffbea7164283604051610208929190610b33565b60405180910390a260006509184e72a00090504781111561025e576040517f08c379a000000000000000000000000000000000000000000000000000000000815260040161025590610af8565b60405180910390fd5b60003373ffffffffffffffffffffffffffffffffffffffff168260405161028490610a1f565b60006040518083038185875af1925050503d80600081146102c1576040519150601f19603f3d011682016040523d82523d6000602084013e6102c6565b606091505b505090508061030a576040517f08c379a000000000000000000000000000000000000000000000000000000000815260040161030190610ad8565b60405180910390fd5b505050565b60006103526040518060400160405280601781526020017f5765206861766520256420746f74616c2077617665732100000000000000000081525060005461061e565b600054905090565b606061039a6040518060400160405280601481526020017f48657265206172652074686520776176657273210000000000000000000000008152506104e9565b6001805480602002602001604051908101604052809291908181526020016000905b828210156104e057838290600052602060002090600302016040518060600160405290816000820160009054906101000a900473ffffffffffffffffffffffffffffffffffffffff1673ffffffffffffffffffffffffffffffffffffffff1673ffffffffffffffffffffffffffffffffffffffff1681526020016001820154815260200160028201805461044f90610ca8565b80601f016020809104026020016040519081016040528092919081815260200182805461047b90610ca8565b80156104c85780601f1061049d576101008083540402835291602001916104c8565b820191906000526020600020905b8154815290600101906020018083116104ab57829003601f168201915b505050505081525050815260200190600101906103bc565b50505050905090565b61057f816040516024016104fd9190610a56565b6040516020818303038152906040527f41304fac000000000000000000000000000000000000000000000000000000007bffffffffffffffffffffffffffffffffffffffffffffffffffffffff19166020820180517bffffffffffffffffffffffffffffffffffffffffffffffffffffffff83818316178352505050506106ba565b50565b61061a8282604051602401610598929190610a78565b6040516020818303038152906040527f319af333000000000000000000000000000000000000000000000000000000007bffffffffffffffffffffffffffffffffffffffffffffffffffffffff19166020820180517bffffffffffffffffffffffffffffffffffffffffffffffffffffffff83818316178352505050506106ba565b5050565b6106b68282604051602401610634929190610aa8565b6040516020818303038152906040527f9710a9d0000000000000000000000000000000000000000000000000000000007bffffffffffffffffffffffffffffffffffffffffffffffffffffffff19166020820180517bffffffffffffffffffffffffffffffffffffffffffffffffffffffff83818316178352505050506106ba565b5050565b60008151905060006a636f6e736f6c652e6c6f679050602083016000808483855afa5050505050565b8280546106ef90610ca8565b90600052602060002090601f0160209004810192826107115760008555610758565b82601f1061072a57805160ff1916838001178555610758565b82800160010185558215610758579182015b8281111561075757825182559160200191906001019061073c565b5b5090506107659190610769565b5090565b5b8082111561078257600081600090555060010161076a565b5090565b600061079961079484610b88565b610b63565b9050828152602081018484840111156107b157600080fd5b6107bc848285610c66565b509392505050565b600082601f8301126107d557600080fd5b81356107e5848260208601610786565b91505092915050565b60006020828403121561080057600080fd5b600082013567ffffffffffffffff81111561081a57600080fd5b610826848285016107c4565b91505092915050565b600061083b83836109b1565b905092915050565b61084c81610c2a565b82525050565b61085b81610c2a565b82525050565b600061086c82610bc9565b6108768185610bec565b93508360208202850161088885610bb9565b8060005b858110156108c457848403895281516108a5858261082f565b94506108b083610bdf565b925060208a0199505060018101905061088c565b50829750879550505050505092915050565b60006108e182610bd4565b6108eb8185610c08565b93506108fb818560208601610c75565b61090481610de1565b840191505092915050565b600061091a82610bd4565b6109248185610c19565b9350610934818560208601610c75565b61093d81610de1565b840191505092915050565b6000610955601f83610c19565b915061096082610df2565b602082019050919050565b6000610978603483610c19565b915061098382610e1b565b604082019050919050565b600061099b600083610bfd565b91506109a682610e6a565b600082019050919050565b60006060830160008301516109c96000860182610843565b5060208301516109dc6020860182610a01565b50604083015184820360408601526109f482826108d6565b9150508091505092915050565b610a0a81610c5c565b82525050565b610a1981610c5c565b82525050565b6000610a2a8261098e565b9150819050919050565b60006020820190508181036000830152610a4e8184610861565b905092915050565b60006020820190508181036000830152610a70818461090f565b905092915050565b60006040820190508181036000830152610a92818561090f565b9050610aa16020830184610852565b9392505050565b60006040820190508181036000830152610ac2818561090f565b9050610ad16020830184610a10565b9392505050565b60006020820190508181036000830152610af181610948565b9050919050565b60006020820190508181036000830152610b118161096b565b9050919050565b6000602082019050610b2d6000830184610a10565b92915050565b6000604082019050610b486000830185610a10565b8181036020830152610b5a818461090f565b90509392505050565b6000610b6d610b7e565b9050610b798282610cda565b919050565b6000604051905090565b600067ffffffffffffffff821115610ba357610ba2610db2565b5b610bac82610de1565b9050602081019050919050565b6000819050602082019050919050565b600081519050919050565b600081519050919050565b6000602082019050919050565b600082825260208201905092915050565b600081905092915050565b600082825260208201905092915050565b600082825260208201905092915050565b6000610c3582610c3c565b9050919050565b600073ffffffffffffffffffffffffffffffffffffffff82169050919050565b6000819050919050565b82818337600083830152505050565b60005b83811015610c93578082015181840152602081019050610c78565b83811115610ca2576000848401525b50505050565b60006002820490506001821680610cc057607f821691505b60208210811415610cd457610cd3610d83565b5b50919050565b610ce382610de1565b810181811067ffffffffffffffff82111715610d0257610d01610db2565b5b80604052505050565b6000610d1682610c5c565b91507fffffffffffffffffffffffffffffffffffffffffffffffffffffffffffffffff821415610d4957610d48610d54565b5b600182019050919050565b7f4e487b7100000000000000000000000000000000000000000000000000000000600052601160045260246000fd5b7f4e487b7100000000000000000000000000000000000000000000000000000000600052602260045260246000fd5b7f4e487b7100000000000000000000000000000000000000000000000000000000600052604160045260246000fd5b6000601f19601f8301169050919050565b7f4661696c656420746f2073656e64207072697a6520746f2073656e6465722e00600082015250565b7f547279696e6720746f207769746864726177206d6f7265206d6f6e657920746860008201527f616e2074686520636f6e7472616374206861732e000000000000000000000000602082015250565b5056fea264697066735822122044483368d2385c472f05a7688bd2eb1974c21c3b74940cca4326f7d1a313805264736f6c634300080400334865726520776520676f2c2041646f6c20536d61727420436f6e7472616374212121",
  "linkReferences": {},
  "deployedLinkReferences": {}
}